:02000002D0002C
:1040000000400D00C4770D00000006000C00050103
:084010000401BD0B00000000DB
:04401800086A0D0025
:10401C0009480A49884208B505D0094A824202D0AB
:10402C00121A02F0A9FC0748074A0021121A02F0E2
:10403C00B1FC014808BD00BF58E5032034770D00E2
:10404C00C0E50320C0E50320F0E7032070B5074E60
:10405C00074C02F0A3F8A41BA4080025A54200D12C
:10406C0070BD56F8043B98470135F7E700770D0013
:10407C0024770D0000F026B808B500F04DF8BDE827
:10408C00084002F04DB801F015BE01F01BBE000057
:10409C0008B5034A00210C2001F070FDFEE700BFBB
:1040AC00F9580D000078B0FA80F0400970470123F0
:1040BC000370704710B50446006808B101F002FEA9
:1040CC00204610BD10B502F017FC02F053FA104850
:1040DC00104C00F047FD0E4801F0CAF80C4801F0F6
:1040EC0033FB0121052002F0B1FB0121062002F077
:1040FC00ADFB0121072002F0A9FB02F0FDFB0146FC
:10410C00204600F012FF2046BDE8104000F0A0BE93
:10411C00D0E5032040E6032070B53F4C204600F06C
:10412C004AFD3E4800F015FE06463C4800F014FEE1
:10413C000546204600F058FDB8B1204601F098F82D
:10414C000121204600F0BFFC00224FF0011334493E
:10415C002046C4E9042301F038FF0A2231462046E8
:10416C0001F03DFF204601F0EFFA2B4800F046FD30
:10417C0080B1294801F07CF800232A4926482361A4
:10418C0001F023FF24480A22294601F028FF224887
:10419C0001F0DAFA204800F03BFD58B11E4801F05E
:1041AC0067F8002320491C48236101F00EFF1A48D0
:1041BC0001F0CAFAC72E0BDC0021052002F057FBD8
:1041CC000021062002F053FB0121072002F04FFBD7
:1041DC00A6F1C803B3F5487F0BD80021062002F0E6
:1041EC0046FB0121052002F042FB0021072002F0D2
:1041FC003EFBB6F57A7F0DDD0021072002F037FB80
:10420C000121062002F033FBBDE87040002105209F
:10421C0002F02DBB70BD00BFD0E5032040E60320AB
:10422C001C6A0D002E6A0D003E6A0D0038B5114C4B
:10423C00114BA36000252560A580A571032001F01A
:10424C00A5FC0E4A0E4920460E4C02F07DFB294679
:10425C00012001F0ABFC0721204600F055FC204664
:10426C00064A094902F070FBBDE83840074800F0E7
:10427C0036BD00BFC4E503200000FFFFC0E50320EE
:10428C00C1400D00D0E50320E14A0D0040E60320BB
:10429C00704710B51021044602F05BFB204610BDA0
:1042AC000EB403B503AB002153F8042B019301F0BA
:1042BC00B4FE02B05DF804EB03B0704773B504466E
:1042CC0008462279A36832B1A3B90B4902B0BDE804
:1042DC00704001F067BE094A267B094D0949647B91
:1042EC00012E18BF2946CDE900140749FFF7D8FF66
:1042FC0002B070BD054AEFE7616A0D003D6A0D0022
:10430C005D6A0D00596A0D00776A0D00506A0D0048
:10431C002DE9F04F85B01F46BDF93880BDF83C3013
:10432C00A8EB0209A7EB010AB9F1000FB8BFC9F15C
:10433C000009BAF1000FB8BFCAF1000AD145834693
:10434C000C46154604DD3A462C4647460D4690462B
:10435C00BC4205DD2A464546904622463C46174659
:10436C003E1BB2B20092A8EB0502002AB8BF524223
:10437C000192C6F3C03202FA86F64545B4BF01225B
:10438C004FF0FF3276100292BC421CDCDBF80020AE
:10439C000393D145D2F81880C7BF294622462A4636
:1043AC0021465846C047019A039BB61AB1B236B2A1
:1043BC00002E05DA029A1544009A56182DB236B220
:1043CC00013424B2E0E705B0BDE8F08F704710B4BB
:1043DC0004682469A4465DF8044B604730B4046853
:1043EC00BDF808500295A46BA44630BC604730B4AD
:1043FC000468BDF808500295E46BA44630BC6047D5
:10440C0070B4BDF90C50BDF810600468CDE90356CA
:10441C00246CA44670BC60472DE9F3411C4603682C
:10442C00BDF820805B6905461646013C34440F46B6
:10443C0024B298472B68CDF8048000949C6A2846D7
:10444C003B4632463946A0472B68DB6A284602B009
:10445C00BDE8F04118472DE9F3411D460368BDF84E
:10446C0020805B69044617460E469847CDE90078D4
:10447C0022686B1E3344956A20461BB23A4631467D
:10448C00A8472368DB6A204602B0BDE8F041184714
:10449C002DE9F3471E460368BDF928905B69BDF80A
:1044AC002C800C460546174698472644B4422B6888
:1044BC000BDACDF80080D3F820A021464B463A46C3
:1044CC0028460134D04724B2F0E7DB6A284602B014
:1044DC00BDE8F047184713B502680191B0F90E100A
:1044EC000091146CB0F90C3000221146A04702B0B8
:1044FC0010BD2DE9F3471D460368BDF82C805B69A0
:10450C00BDF9289004460F46164698472368CDF807
:10451C000080D3F824A032462B4639462046D0479B
:10452C002368CDF8008009F1FF323244D3F824A07F
:10453C0039462B46204612B2D0472368CDF800806E
:10454C00D3F820A032464B4639462046D0476B1E46
:10455C00D9192368CDF800801D6A20464B46324697
:10456C0009B2A8472368DB6A204602B0BDE8F047D1
:10457C00184770472DE9F74399421646BDF9287044
:10458C00BDF82C90026880460D461C4613D1BE42E5
:10459C00C8BF3346CDF82890C4BF3E461F467B1C8F
:1045AC00946B9B1B1BB2324629464046A44603B073
:1045BC00BDE8F0436047BE420AD19942C2BF0B46E8
:1045CC0025461C46631CCDF82890D46B5B1BE9E791
:1045DC0053699847CDE90079D8F8003040469F6A76
:1045EC00324623462946B847D8F80030DB6A4046A5
:1045FC0003B0BDE8F043184701F00303B0F90A20FB
:10460C008376C907B0F9083059BF8381C281828192
:10461C00C381704730B54281C281074A074D018181
:10462C00002481814FF0FF31C0E905124460056020
:10463C0004610477046230BD010100019C6F0D0020
:10464C002DE9F04F89B0CDE902120268BDF948801E
:10465C000493BDF94C3052690593BDF850A0044643
:10466C00904718F107024FF0000648BF08F10E0200
:10467C004FEAE20B01963546039B019ABDF90410F3
:10468C009A18059B8B4212B227DD049B33444FF0E2
:10469C00000906930FFA89F080451FFA89F117DD9E
:1046AC004F0705BF069BC0106D001D5C18BFEDB217
:1046BC002B060AD5029B206807921944836909B21C
:1046CC001F4620465346B847079A09F10109E1E70E
:1046DC00019B013301935E44CEE72368DB6A2046DD
:1046EC0009B0BDE8F04F18472DE9F04F2DED028BC6
:1046FC0091B01646026ABDF874809DF878509DF80A
:10470C007C4003911F46BDF8703004938346002A09
:10471C0040F0C580B0F90C308B4240F34C81B0F9BD
:10472C000E30B34240F34781062313FB0513002BD5
:10473C0040F3418106EBC403002B40F33C81037F23
:10474C001BB9AF2F84BF0137FFB2DBF800305846DE
:10475C005B6998470522099200220592984A07EB5B
:10476C008703D3180C93B3B20693059A0C9B9B5CEE
:10477C000793ABB20B93BDF80C300893039B02FB71
:10478C0005F919FA83F90FFA89F308EE103A0823A0
:10479C000A93039B02EB030A4FF000090FFA8AFA03
:1047AC00079ADBF80030D20752D5012D1FFA89F297
:1047BC003ED1012C3CD19B6906991F46049B0A44AF
:1047CC0012B251465846B84709F101034FFA83F922
:1047DC00079B5B0807930A9B013B13F0FF030A93AB
:1047EC00DED1059F01377BB20593099B013B13F08A
:1047FC00FF030993B9D1049B43450FD0012DDBF87E
:10480C0000303BD1012C39D10899CDF8008005310D
:10481C001C6A3246082309B25846A047DBF8003020
:10482C00DB6A584611B0BDEC028BBDE8F04F18475F
:10483C00069914FB02F20A44049901910094DB6975
:10484C0018EE101A1F4612B22B465846B847BBE753
:10485C00049A4245B8D0012D1FFA89F207D1012CD8
:10486C0005D19B6906991F460A444346A8E7069959
:10487C00CDF8048014FB02F20A44DFE70B9ACDF862
:10488C00048002EB8201089AE4000A441146009469
:10489C00DC6932462B4609B25846A047BEE7137A6C
:1048AC00516812680D92FF1AFFB201EBC70331F881
:1048BC00372006929A780992DA780B92012D93F9A7
:1048CC00052093F906A00A9201D8012C57D9BDF9FD
:1048DC00283008930FFA8AF30793DBF80030584618
:1048EC005B699847B3B24FF000080E931AFA86F33F
:1048FC00C14647460F930B9B9F428FD2079B0E9A44
:10490C003B4403FB0423002205920F9A1BB202EBDB
:10491C00070A08EE103A0FFA8AFA4346099A0599E3
:10492C00914241D25A1CD2B25B070C9207D1069B22
:10493C0006990D9A01339BB212F80190069319F067
:10494C00800F12D0012DDBF80030BDF80C101AD1FD
:10495C00012C18D10A9A9B691144059A11441E46E0
:10496C005246049B09B25846B047059E0136F3B235
:10497C004FEA490905935FFA89F90C9BCEE70023AE
:10498C00CDE90733A9E70598089A024402FB051103
:10499C00049ACDE90042DB6918EE102A1E4609B2D2
:1049AC002B465846B047E0E7099B013798445FFA1D
:1049BC0088F8FFB29FE711B0BDEC028BBDE8F08F19
:1049CC00946A0D00F0B5026A85B004460B46002AC5
:1049DC0034D10A2908D1438A0282427E03EBC203F6
:1049EC006382012005B0F0BD0D29FAD0E17E007E76
:1049FC00657E71B1B4F91060062111FB0061B4F948
:104A0C000C60B142C1BFB4F91210228201EBC50295
:104A1C006282E28A0192A28A0092CDE90205B4F97F
:104A2C001220B4F910102046FFF75EFE237E228A76
:104A3C0003EB430302EB43032382D2E70A2907D19A
:104A4C0000230382937A417E428A01FB0323C7E74A
:104A5C000D29C6D0157AA942C3D3517A9942C0D335
:104A6C0051685D1BEDB201EBC505AF782FB3E9784A
:104A7C0019B3E17E007E667E91B195F9051039443B
:104A8C00B4F9107000FB0171B4F90C70B94207DD78
:104A9C0000272782B4F91210927A02FB0612628266
:104AAC00E28A0192A28A0092CDE90206B4F91220A0
:104ABC00B4F910102046FFF717FE2979237E228ABD
:104ACC0001FB0323B8E7012938BF012101764176A8
:104ADC007047000010B5064B03600446006D08B12A
:104AEC0000F01CFF204600F04BFA204610BD00BF22
:104AFC00F46F0D0010B50446FFF7ECFF2046702153
:104B0C0001F027FF204610BD30B585B004460D4698
:104B1C0001F0F2FE104A1149CDE901214FF0FF32AC
:104B2C008021034600922046202200F0AFFA0C4B65
:104B3C0023600023C4E9143504F1580000F072F826
:104B4C0004F1600000F06EF804F1680000F06AF8FF
:104B5C00204605B030BD00BF801A0600A0860100BB
:104B6C00F46F0D0013B50446503000F0CFFE636DAA
:104B7C00D90705D50222042104F1580000F066F88B
:104B8C00636D9A0705D50022032104F1600000F043
:104B9C005DF8636D5B0705D50222114604F16800D0
:104BAC0000F054F8012300933C220221204600F02F
:104BBC006DFB02B010BD10B5436DD907044602D58C
:104BCC00583000F050F8636D9A0703D504F160007B
:104BDC0000F049F8636D5B0705D504F16800BDE88A
:104BEC00104000F040B810BD436D024613F00100B8
:104BFC0003D002F1580000F066B87047436D0246CE
:104C0C0013F0020003D002F1600000F05CB87047B2
:104C1C00436D024613F0040003D002F1680000F06B
:104C2C0052B8704700210A22C0E9001270470023D5
:104C3C0010B50446C171837188B201F031FE08B120
:104C4C000323A37100F05AFE206010BD38B50C464A
:104C5C0005461146A0B201F0F9FD21462846BDE8F3
:104C6C003840FFF7E4BF38B50446C07901F018FEB0
:104C7C00A579003825F0080318BF0120C5F34005BD
:104C8C008542A3710AD000F039FEA379206083F02D
:104C9C000203A371A079C0F3C00038BD00F02EFE52
:104CAC002368C01AA3889842F4D3A37903F00103B4
:104CBC00AB42EFD000F022FEA379206083F0010319
:104CCC0043F00803E5E7807900F00900A0F1080340
:104CDC005842584170470368C9B29B6818477047DF
:104CEC0010B504466021006801F076FC206801F0E4
:104CFC007EFCB0FA80F0400910BD38B505460C4674
:104D0C000068602101F068FC2868036821469B68F4
:104D1C0098472868002101F066FC08B1002038BDD6
:104D2C0028680222602101F054FC286803681B6982
:104D3C0098470028F2D0286803685B6998470446B6
:104D4C00286803685B699847E4B244EA002080B2A3
:104D5C00E5E70821FFF7D1BF0921FFF7CEBF0C21F2
:104D6C00FFF7CBBF70B504460E46006860211546B0
:104D7C0001F032FC2068036831469B689847E9B221
:104D8C002068FFF7A8FF290A2068FFF7A4FF206816
:104D9C0001F02DFCB0FA80F0400970BD70B50446EE
:104DAC000D461646FFF7A9FF00F47F4040EA0602C5
:104DBC0029462046BDE87040FFF7D4BF70B50446C5
:104DCC000D461646FFF799FFC0B240EA0622294667
:104DDC002046BDE87040FFF7C5BF08B5FFF78DFF53
:104DEC00C0F3072008BD2DE9F04104469DF818706A
:104DFC000D46984616466AB1FFF77FFFC0B200EA2F
:104E0C00080343EA07022946204636B1BDE8F041C3
:104E1C00FFF7C4BFFFF7E1FFF1E7BDE8F041FFF793
:104E2C00CDBFB1F5A07F07B50ED29F290ED84F2963
:104E3C008CBF40230023009301223F230321FFF763
:104E4C00D2FF03B05DF804FBC023F4E78023F2E744
:104E5C0007B500210091FE230122FFF7C4FF03B028
:104E6C005DF804FB072907B50FD803290FD810D01C
:104E7C0002290CBF0423002300930122F1230321F8
:104E8C00FFF7B1FF03B05DF804FB0E23F4E70C232E
:104E9C00F2E70823F0E707B5002300930122FE2375
:104EAC000321FFF7A0FF03B05DF804FB07B50F2942
:104EBC008CBF0823002300930022F7230321FFF764
:104ECC0092FF03B05DF804FB07B5022300930122A7
:104EDC00EF230421FFF787FF03B05DF804FBC7291C
:104EEC0007B516D8B32916D89F2916D88B2916D8EA
:104EFC00772916D8632916D84A2994BF0021012195
:104F0C000091F82300220421FFF76DFF03B05DF838
:104F1C0004FB0721F4E70621F2E70521F0E7042161
:104F2C00EEE70321ECE70221EAE738B50446084630
:104F3C00216001F01FFB2046FFF7D2FE054610B999
:104F4C000025284638BD2046FFF709FFB0F5C37F82
:104F5C00F6D12046C821FFF7C2FF20462821FFF7D3
:104F6C0060FF20460821FFF77DFF10212046FFF748
:104F7C009DFF2046FFF7A8FF2046FFF78CFFE0E7D8
:104F8C0010B5044B03600446C06A08B100F09AFEE9
:104F9C00204610BD00750D0010B50446FFF7F0FF5C
:104FAC002046502101F0D5FC204610BD002910B53B
:104FBC004BDBB0F90C408C4247DD002A45DBB0F9E5
:104FCC000E40944241DD847E022C1FD0032C26D04F
:104FDC00012C04D10489D24314440A4621B2012B7A
:104FEC0023D0022B32D083BB002A13460489C06A1B
:104FFC00B8BFD31DDB1013FB041102F00702012311
:10500C009340425C22EA030242541EE00489C943E5
:10501C0021444489D243224409B212B2DFE74489C5
:10502C00C9430C44114622B2D9E7002A048913461D
:10503C00B8BFD31DDB1013FB0411C36A02F00700C9
:10504C0001228240585C02435A5410BD002A134678
:10505C000489C06AB8BFD31DDB1013FB041102F026
:10506C000702012303FA02F2435C5A40CCE710B565
:10507C00044690F93600012180B201F0F8FB606A19
:10508C0018B1BDE8104000F094BE10BD70B50446D8
:10509C001D460026FFF7BEFA114B2360666215B958
:1050AC0001F02AFC0546FF2384F8333084F83630AF
:1050BC009DF9103084F837300A4BA363012384F830
:1050CC003C30059BA3644FF6FF72069BA286C4E995
:1050DC000A562664A4F84460E364204670BD00BF01
:1050EC0000750D004C700D00F8B50446806A0D4635
:1050FC0090B194F9301001F073FAA06A03680021A2
:10510C009B689847A06A036829469B689847A06AE1
:10511C00BDE8F84001F06BBA94F93530014698B20D
:10512C0001F0A5FB606A20B12946BDE8F84000F00B
:10513C00C7BE0826802794F9330005EA070180B220
:10514C0001F095FB94F93400012180B201F08FFB42
:10515C0094F93400002180B201F089FB013E4FEA42
:10516C005707E8D1F8BD38B50446806A0D4680B1C2
:10517C00A16C01F0FBF9002D204614BFA721A6213C
:10518C00FFF7B2FFA06A88B1E16CBDE8384001F0CE
:10519C00EDB9606A18B104F1380100F023FE94F9FE
:1051AC003600002180B201F062FBE4E72046BDE846
:1051BC003840FFF75CBF2DE9F8430446806A0D4682
:1051CC008F1840B394F9301001F00AFAA06A036802
:1051DC0000219B6898470126BD42A06A17D01F2E5C
:1051EC000CD901F004FA94F93010A06A01F0F8F926
:1051FC00A06A036800219B6898470126A06A15F8ED
:10520C00011B036801369B689847F6B2E4E7BDE8DA
:10521C00F84301F0ECB994F93530014698B201F03D
:10522C0026FBAF4222D0606A15F8019B18B14946A3
:10523C0000F046FEF5E708264FF0800894F933009D
:10524C0009EA080180B201F012FB94F93400012143
:10525C0080B201F00CFB94F93400002180B201F013
:10526C0006FB013E4FEA5808E8D1DAE7BDE8F883BF
:10527C00B0F90A30DA1D48BF03F10E02B0F908305C
:10528C00C06AD2105A43002101F084BB2DE9FF41C2
:10529C001E46C36A9DF8288004460F461546B3B1D6
:1052AC002046FFF7E5FFB4F90A00B4F908102028EE
:1052BC001FDC20230122CDE90132203873237339FE
:1052CC00009300EBD070894B01EBD1711FE0B0F96A
:1052DC000A30D81D48BF03F10E00B4F90830C010D5
:1052EC00584300F0E7FCE0620028D9D104B0BDE8D7
:1052FC00F08140234FF0010CCDE9013C52234038A2
:10530C00523900937A4B00EBD07001EBD17140F322
:10531C004F0241F34F012046FFF792F9A06A84F83F
:10532C003170002878D0002D74D1B4F90A30202BBC
:10533C000CBF3C253D2584F83050B8F1000F01D04E
:10534C0001F018F9FEB194F9370000281BDB01219C
:10535C0080B201F07BFA94F93700012180B201F0A0
:10536C0086FA012000F0A2FE94F93700002180B2E9
:10537C0001F07DFA0A2000F099FE94F93700012122
:10538C0080B201F074FAA06A002874D0A16C01F00C
:10539C00EDF8042257492046FFF70DFFA17A013999
:1053AC00C9B22046FFF7A0FE534904222046FFF75E
:1053BC0002FF94F93130012B0CBF1021142120462F
:1053CC00FFF792FE04224D492046FFF7F4FEA36836
:1053DC004B4A93425CD14B4904222046FFF7EBFE2B
:1053EC00D9212046FFF780FE94F93130012B0CBFF8
:1053FC002221F1212046FFF777FE20464249062262
:10540C00FFF7D9FEA06A002863D0E16C01F0AEF87A
:10541C0001206BE76DB28EE794F93500012180B263
:10542C0001F014FA94F93600012180B201F00EFA61
:10543C0094F93600012180B201F019FA656A3DB188
:10544C00B8F1000F3FF47EAF284600F0A1FC79E7DD
:10545C0094F93300012180B201F0F8F994F9340089
:10546C00012180B201F0F2F994F93400294680B29E
:10547C0001F0FDF966E7606A18B104F1380100F03B
:10548C00B1FC94F93600002180B201F0F0F980E70C
:10549C001E4A93420ED11E4903222046FFF78BFE73
:1054AC0094F93130012B0CBF9F21CF212046FFF7FF
:1054BC001BFE95E7174A934292D1174903222046C7
:1054CC00FFF779FE94F93130012B0CBF1021AF217D
:1054DC00ECE794F93600012180B201F0C8F9606A5A
:1054EC00002895D000F065FC92E700BF18730D0002
:1054FC0058700D0060750D0064750D0068750D0019
:10550C008000200072750D006C750D00800040004D
:10551C0076750D006000100079750D0070B5002ACD
:10552C00BDF810503DDBB0F90A40944239DD00293A
:10553C00BEBF5B181BB20021B0F90840CE18A642C2
:10554C00C4BF631A1BB2002B2BDDC06AD61014FB30
:10555C000611014402F0070001228240012DD2B253
:10556C0016D0022D0BD0E5B9D243D2B20B449942DE
:10557C0017D011F8010B104001F8010CF7E70B44A0
:10558C0099420ED011F8010B504001F8010CF7E7CD
:10559C000B44994205D011F8010B104301F8010C92
:1055AC00F7E770BDF0B50029BDF8146076DBB0F9F3
:1055BC000850A94272DA002ABCBFD21813B2B0F953
:1055CC000A40B8BF0022D718A742C4BFA31A1BB207
:1055DC00002B63DDC2F3C404C76A15FB041112F07F
:1055EC000702DBB207EB010423D0C2F10802D2B2EE
:1055FC002C4D93423CBF4FF0FF0CA2EB030EAD5C65
:10560C003CBF4CFA0EFC0CEA0505012E07D0022E0D
:10561C002ED04EB917F801C02CEA050503E017F897
:10562C0001C045EA0C057D54934237D3B0F90810FC
:10563C000C449A1AD2B2072A0ED9022E1DD1134647
:10564C002178C9432170083BB0F90810DBB2072B55
:10565C000C44F5D802F0070202B3134B012E9B5CED
:10566C0019D0022E1BD0CEB9227822EA030314E003
:10567C0017F801C085EA0C05D5E7002E14BFFF25ED
:10568C00002513462570083BB0F90810DBB2072B38
:10569C000C44F7D8DEE7227813432370F0BD227850
:1056AC005340FAE750750D0058750D0070B4144650
:1056BC00827EBDF80C60022A0DD0032A18D0012A74
:1056CC0011D10289E443144424B203960A462146BC
:1056DC0070BCFFF767BF42890589E4431944144441
:1056EC00691A24B209B20396224670BCFFF716BFA2
:1056FC0045891944691A09B2E7E730B41446827E29
:10570C00BDF80850022A0DD0032A18D0012A11D155
:10571C00E2180489A41A24B202950A46214630BC28
:10572C00FFF7FCBE0289C9431144E2184489A41A4C
:10573C0009B224B20295224630BCFFF733BF42892E
:10574C00C943114409B2E7E72DE9F8430446806ADE
:10575C00002842D0A16C00F009FF474905222046E1
:10576C00FFF729FD217A01392046C9B2FFF7BCFCAD
:10577C00B4F90A30DE1D48BF03F10E06D4E90A0560
:10578C002389F61013FB06F615FA86F600283AD094
:10579C0094F9301000F024FFA06A036840219B6844
:1057AC0098470127B542A06A24D01F2F0CD900F0CE
:1057BC001EFF94F93010A06A00F012FFA06A036873
:1057CC0040219B6898470127A06A15F8011B0368C4
:1057DC0001379B689847FFB2E4E7606A18B104F19F
:1057EC00380100F0FFFA94F93600002180B201F084
:1057FC003EF8B2E700F0FBFEA06A78B3E16CBDE8BE
:10580C00F84300F0B3BE94F93500012180B201F0E9
:10581C002EF8B542F0D0606A15F8019B18B14946D4
:10582C0000F04EFBF5E708274FF0800894F93300A1
:10583C0009EA080180B201F01AF894F93400012148
:10584C0080B201F014F894F93400002180B201F018
:10585C000EF8013F4FEA5808E8D1DAE794F9360020
:10586C00012180B201F003F8606A18B1BDE8F84379
:10587C0000F09FBABDE8F8837C750D0008B5024BAB
:10588C001B689B68019308BD6802030008B5024BB6
:10589C001B68DB68019308BD6802030008B5024B66
:1058AC001B689B68019308BD2C02030008B5024BD2
:1058BC001B68DB68019308BD2C02030008B5024B82
:1058CC001B681B69019308BD2C02030008B5024B31
:1058DC001B685B69019308BD2C02030008B5024BE1
:1058EC001B685B68019308BD1802030008B5024BE6
:1058FC001B68DB68019308BD1802030008B5024B56
:10590C001B685B69019308BD1802030008B5024BC4
:10591C001B681B6B019308BD4802030008B5024BC2
:10592C001B685B6B019308BD4802030008B5024B72
:10593C001B685B6C019308BD4802030008B5024B61
:10594C001B689B6C019308BD4802030008B5024B11
:10595C001B685B69019308BD6402030008B5024B28
:10596C001B681B68019308BD3C02030008B5024B81
:10597C001B68DB68019308BD3C02030008B5024BB1
:10598C001B681B69019308BD3C02030008B5024B60
:10599C001B685B69019308BD3C02030008B5024B10
:1059AC001B689B69019308BD3C02030008B5024BC0
:1059BC001B68DB69019308BD3C02030008B5024B70
:1059CC001B681B6A019308BD3C02030008B5024B1F
:1059DC001B689B6A019308BD3C02030008B5024B8F
:1059EC001B681B68019308BD2802030008B5024B15
:1059FC001B68DB68019308BD2802030008B5024B45
:105A0C001B689B69019308BD2802030008B5024B73
:105A1C001B68DB69019308BD2802030008B5024B23
:105A2C001B681B6A019308BD2802030008B5024BD2
:105A3C001B685B6A019308BD2802030008B5024B82
:105A4C001B689B6A019308BD2802030008B5024B32
:105A5C001B68DB6A019308BD2802030008B5024BE2
:105A6C001B681B6B019308BD2802030008B5024B91
:105A7C001B685B6B019308BD2802030008B5024B41
:105A8C001B681B6C019308BD2802030008B5024B70
:105A9C001B681B6D019308BD2802030008B5024B5F
:105AAC001B681B68019308BD3002030008B5024B4C
:105ABC001B685B69019308BD3002030008B5024BFB
:105ACC001B68DB69019308BD3002030008B5024B6B
:105ADC001B681B6A019308BD3002030008B5024B1A
:105AEC001B685B6A019308BD3002030008B5024BCA
:105AFC001B68DB6B019308BD3002030008B5024B39
:105B0C001B681B6C019308BD3002030008B5024BE7
:105B1C001B685B6C019308BD3002030008B5024B97
:105B2C001B681B68019308BD4C02030008B5024BAF
:105B3C001B681B69019308BD4C02030008B5024B9E
:105B4C001B685B69019308BD4C02030008B5024B4E
:105B5C001B689B69019308BD4C02030008B5024BFE
:105B6C001B68DB69019308BD4C02030008B5024BAE
:105B7C001B681B6A019308BD4C02030008B5024B5D
:105B8C001B685B6B019308BD6002030008B5024BF8
:105B9C001B685B68019308BD2002030008B5024B2B
:105BAC001B685B69019308BD2002030008B5024B1A
:105BBC001B68DB6A019308BD2002030008B5034B88
:105BCC001B68D3F88830019308BD00002002030045
:105BDC0008B5034B1B68D3F89430019308BD000043
:105BEC002002030008B5024B1B685B68019308BDDB
:105BFC004002030008B5024B1B689B68019308BD6B
:105C0C004002030008B5024B1B68DB68019308BD1A
:105C1C004002030008B5024B1B681B69019308BDC9
:105C2C004002030008B5024B1B685B69019308BD79
:105C3C004002030008B5024B1B689B69019308BD29
:105C4C004002030008B5024B1B68DB69019308BDD9
:105C5C004002030008B5024B1B681B6A019308BD88
:105C6C004002030008B5024B1B681B6B019308BD77
:105C7C004002030008B5024B1B685B6B019308BD27
:105C8C004002030008B5024B1B681B6C019308BD56
:105C9C004002030008B5024B1B685B6C019308BD06
:105CAC004002030008B5024B1B68DB6B019308BD77
:105CBC004402030008B5024B1B681B68019308BD26
:105CCC001C02030008B5024B1B685B68019308BDFE
:105CDC001C02030008B5024B1B685B6A019308BDEC
:105CEC001C02030008B5024B1B685B6C019308BDDA
:105CFC001C020300002240681146FFF7ABBF0022D4
:105D0C0040681146FFF7B6BF40680022FFF7AABFF4
:105D1C004068002281F00101FFF794BF0023406826
:105D2C001A461946FFF786BF002340681A461946E3
:105D3C00FFF778BF002240681146FFF76BBF0022C7
:105D4C0040681146FFF756BF406800220221FFF75A
:105D5C0059BF002340681A46FFF744BF024B032289
:105D6C005A60024A1A60704750E603208C750D0089
:105D7C000021FFF7C3BE0021FFF7C8BE10B50446D3
:105D8C0008462170FFF79AFE00236360204610BD81
:105D9C0010B504460078FFF7EBFF48B920784FF6B2
:105DAC00FF71FFF77BFE2078BDE81040FFF7E3BFE3
:105DBC0010BD0078FFF7DFBF400830B51860002435
:105DCC0018688842E5B206D90134082C02D0400884
:105DDC001860F5E70725024B5B5D137030BD00BF03
:105DEC00C0750D002DE9F04306468FB000780C46C7
:105DFC00FFF7BEFF00281BDB35781422002109A811
:105E0C0000F0C8FD0B23002209A92846ADF8243068
:105E1C00FFF764FE9DF82D3013B19DF82C5055B151
:105E2C000027B946B846012523795DB1C3B10020DE
:105E3C000FB0BDE8F083DDF830809DF834909DF80C
:105E4C003570F1E7002B35D1A368434508D18DF8A7
:105E5C0020908DF82170BDF82020A3899A42E6D0BD
:105E6C000023A1688DF80F300A9804AB0DF10F02D6
:105E7C00FFF7A2FF217985B989B9A36843450ED3F1
:105E8C008DF820908DF82170BDF82020A3899A42BE
:105E9C0005D1049B434502D1C9E70029F9D1002360
:105EAC000193637B00939DF80F20237B3078FFF7E1
:105EBC001DFEBCE7CDE900552B462A460121F5E72E
:105ECC0008B50078FFF7F2FDC0B208BD10B5094B5C
:105EDC00094C022200201A60084B2060A080A0719F
:105EEC00A360FFF753FE2046054A0649BDE8104063
:105EFC0000F02ABD64E6032058E603200000FFFFF3
:105F0C00C0E50320C1400D0010B50446006808B17F
:105F1C00FFF714FD204610BD10B58368044613B17D
:105F2C00032201469847204610BD000010B5064CD0
:105F3C00002320462360FFF7F9FC2046034A04495E
:105F4C00BDE8104000F000BD68E60320C0E503206A
:105F5C00155F0D00F8B506460D468F180024BD429E
:105F6C000CD0336815F8011B9B6830469847031E0C
:105F7C0001DB1C44F3E7002C08BF1C462046F8BD8F
:105F8C0013B50446084659B1019100F02FFD236862
:105F9C000199DB680246204602B0BDE81040184764
:105FAC0002B010BD08B5FFF7EBFF08BD03689B6896
:105FBC00184738B50D210546FFF7F8FF0A210446AE
:105FCC002846FFF7F3FF204438BD38B50546FFF7E8
:105FDC00D7FF04462846FFF7ECFF204438BD30B508
:105FEC008BB000238DF82430012A98BF0A2209AC0B
:105FFC000D46B1FBF2F101FB125303F0FF03092B29
:10600C0094BF30333733DBB2AA4204F8013DEFD9E9
:10601C002146FFF7B5FF0BB030BD2DE9F04186B03E
:10602C0000AF05460E46381D142114463B60FFF7A1
:10603C0051FE13280ED8391D2846FFF7A1FF044640
:10604C001EB12846FFF7B5FF044420461837BD465D
:10605C00BDE8F08100F1080323F00703E846ADEB3F
:10606C00030D2246411C3B686846FFF733FE694628
:10607C002846FFF785FF0446C546E1E70023406844
:10608C001A461946FFF7CEBD014B024A1A607047FB
:10609C006CE60320C8750D00024B1A68024B1A609F
:1060AC00704700BF58E5032070E603200021FFF77E
:1060BC0075BD10B50446FFF72FFF204610BD00003C
:1060CC000348044A04490023836000F03DBC00BF30
:1060DC0074E60320C0E50320BF600D00014B18607F
:1060EC00704700BF5CE5032008B50B4B43B100F0D3
:1060FC0057F903681B699847002801DDAFF300804E
:10610C00064B43B100F0CAF903681B699847002895
:10611C0001DDAFF3008008BD0000000000000000AE
:10612C0008B5FFF7E1FFFFF7E9FB014B186008BD6D
:10613C00D4E703200248034A0349121A00F01CBC9E
:10614C0000F4032004F4032030770D0007B500237E
:10615C0000931A466FF07701FFF73AFD03B05DF834
:10616C0004FB000007B543880A2B08D0502B0BD139
:10617C00094B1B684BB103B05DF804EB1847FFF7F4
:10618C00E5FF03B05DF804FB002300931A466FF0A3
:10619C007701FFF71DFDF4E788E6032038B5124CB4
:1061AC001248134D0021FFF79DFD2368AB42114BA4
:1061BC000CBF012200221A7002D0FFF7BBFF256032
:1061CC00FFF78CFB044600F0EDFB0B4B13B12046A4
:1061DC00AFF3008000210848FFF764FDBDE83840AC
:1061EC0006480021FFF7EABC00F40320E9600D002B
:1061FC001E1C279A84E603200000000071610D002C
:10620C00704710B51821044600F0A3FB204610BDC2
:10621C00F0B5037D062B8DB00E4600F104074FF050
:10622C00000412D000F1080515F8011D0A223046B1
:10623C00FFF7D5FEAF42044419D0002CF4D02E2128
:10624C003046FFF7B3FE0444EEE72F236A46394687
:10625C000A208DF80040FFF779FB684600F0C6FB7A
:10626C0033680246DB686946304698470446204648
:10627C000DB0F0BD10B5054B0446112240F8043B9F
:10628C00002100F087FB204610BD00BFF0750D000B
:10629C000346074A10B543F8042B01F1100251F8DC
:1062AC00044B43F8044B9142F9D10A781A7010BD93
:1062BC00F0750D0010B59DF8084044EA032343EA3D
:1062CC00024242EA016104234160037510BD0000E3
:1062DC0013B5054B0360CB7800938B784A7809781B
:1062EC00FFF7E8FF02B010BDF0750D004174704768
:1062FC00704708B50021007CFFF728FC40EAE070ED
:10630C0008BD08B50121007CFFF720FC40EAE070D5
:10631C0008BD08B5007CFFF711FC20EAE07008BD51
:10632C0008B5007CFFF702FC20EAE07008BD13B54D
:10633C000446007C0191FFF701FC0028019901DC67
:10634C00607C20B1207CFFF709FC20EAE07002B0F1
:10635C0010BD007CFFF70ABC10B51421044600F0F8
:10636C00F8FA204610BD000010B54FF47A730446BD
:10637C0008460021C4E90113044B23600123207457
:10638C0063741146FFF7CAFB204610BD04760D005E
:10639C0010B514220446002100F0FCFA204610BD72
:1063AC0010B5104C88B003A8FFF7F2FF2178BFF3AB
:1063BC005B8F11F0010111D120460191FDF772FEA6
:1063CC00019958B103AA0848FFF7CEFF2046FDF704
:1063DC006EFE064A0649044800F0B6FA024808B0B8
:1063EC0010BD00BF8CE6032090E60320C0E503201F
:1063FC00FD620D0070474174704708B5007CFFF7D3
:10640C00E5FA20EAE07008BD08B5007CFFF7B6FAA3
:10641C0020EAE07008BD08B5007CFFF7BFFA40EA3F
:10642C00E07008BD08B5007CFFF7B0FA40EAE070F8
:10643C0008BD007CFFF7BABA37B5457C04462DB1D0
:10644C00207C03B0BDE83040FFF790BA007C01918E
:10645C00FFF7BCFA00280199F2DC284603B030BDE6
:10646C0010B51421044600F074FA204610BD00004B
:10647C0010B54FF0000C0446084611464FF47A72E2
:10648C00C4E901C2044A22600122207462741A46D3
:10649C00FFF764FA204610BD34760D0013B50E4C90
:1064AC002178BFF35B8F11F0010112D120460191CD
:1064BC00FDF7F8FD019960B1084A094B0948FFF74F
:1064CC00D7FF2046FDF7F3FD074A0849054800F0C1
:1064DC003BFA044802B010BDA4E60320A8E6032052
:1064EC002CE70320B0E70320C0E5032001640D0076
:1064FC007047F8B5064615460C468F18BC4206D0B8
:10650C00336814F8011B9B6830469847F6E7284619
:10651C00F8BD007C0022FFF781BA007C0021FFF758
:10652C0085BA007C0021FFF789BA007C0021FFF7B7
:10653C008DBA007C0021FFF791BA10B514210446E6
:10654C0000F007FA204610BD10B54FF47A730446DC
:10655C0008460021C4E90113034B23602074114643
:10656C00FFF78CFA204610BD64760D00007C0022EB
:10657C00FFF734BA0023007C1A461946FFF736BAE7
:10658C007FB500221423CDE90122ADF804300B783D
:10659C008DF808304B680393CB680493007C0B7A1E
:1065AC00059301A9FFF772FA07B05DF804FB1FB55C
:1065BC00003B8DF800104FF06401039118BF0123CC
:1065CC00694601928DF80830FFF7DAFF05B05DF8E7
:1065DC0004FB0123FFF7EBBF007C0022FFF70EBA90
:1065EC00C9B2FFF7F9BF007C0022FFF70FBA0121F7
:1065FC00FFF7F9BF002240681146FFF70BBB0022E2
:10660C0040681146FFF726BB002240681146FFF791
:10661C0031BB40680022FFF725BB4068002281F0A7
:10662C000101FFF70FBB002340681A461946FFF71C
:10663C0001BB002240681146FFF7DCBA406800221B
:10664C000221FFF7DFBA002340681A46FFF7CABAE7
:10665C00024B04225A60024A1A607047C4E70320B6
:10666C008C760D00002340681A46FFF7BBBA4068D1
:10667C0000220221FFF7C6BA002240681146FFF73C
:10668C00B9BA002240681146FFF7C4BA002340682B
:10669C001A461946FFF7C6BA002340681A4619462F
:1066AC00FFF7C8BA40680021FFF7ECBA4068002138
:1066BC00FFF7F0BA4068002281F00101FFF7C2BA7F
:1066CC0040680022FFF7CEBA002240681146FFF75F
:1066DC00D1BA002240681146FFF7BCBA2DE9F0434D
:1066EC00002495B016460D460746FFF7C3FD21461C
:1066FC0018220EA8009400F04DF94023CDE90C347B
:10670C0021466B460CAA3046FFF7C0F80446002819
:10671C004CD1024601216868FFF77CFA02218046C1
:10672C0022466868FFF776FA009E81462146002EC5
:10673C003CD000293AD17368022B03D00A2B11D01C
:10674C00F669F4E7B8F1000F0AD0716906A80431B4
:10675C0007ADFFF7BDFD0FCD3C1D0FC42B6823709B
:10676C004146EDE7B9F1000F01D14946E8E77469FC
:10677C00102201A800F00EF906238DF8143001AD9B
:10678C0004F108031834186859682A4603C2083300
:10679C00A3421546F7D101A906A807ADFFF778FD6E
:1067AC000FCD3C1D0FC42B682370DEE70098FFF75C
:1067BC0065F8384615B0BDE8F0830000024B034A7B
:1067CC001A6000225A607047CCE70320C8760D008F
:1067DC00232813B502D9002002B010BDA0F10B0381
:1067EC00022B1AD8174C2178BFF35B8F11F00101E3
:1067FC000BD120460191FDF755FC019928B11248A7
:10680C00FFF7BCFA2046FDF752FC0F4B1878FFF748
:10681C005DF90028DFD10120DEE7012809D800F05E
:10682C006BF80021007CFFF721F980F00100C0B269
:10683C00D2E709380128EED8FFF730FE007CFFF7CD
:10684C00BDF8F2E744E6032048E60320232838B5D8
:10685C0004460D460AD8FF2908D0FFF7B9FF28B126
:10686C0029462046BDE83840FFF718B838BD38B582
:10687C0004460D46FFF71AF8FF2810D0062804D856
:10688C004D2323FA00F0C30709D42046FFF7A0FFDD
:10689C0028B129462046BDE83840FFF70FB838BD6F
:1068AC0010B50446FFF702F8031FDBB2012B08D921
:1068BC002046FFF78DFF20B12046BDE81040FFF7C2
:1068CC0005B8002010BD000038B5002320254380FA
:1068DC00142304460380856005610649284600F0B0
:1068EC003AF804496060284600F035F8E06020462C
:1068FC0038BD00BFFC760D0030B50F4D2978BFF3C5
:10690C005B8F11F0010487B013D12846FDF7CAFB49
:10691C0078B101A8FFF7D8FF01AA21460748FFF775
:10692C0013FE2846FDF7C3FB054A0649034800F051
:10693C000BF8024807B030BDD8E70320DCE7032092
:10694C00C0E50320FD640D000B460146184600F01F
:10695C0005B8FDF79ABBFDF796BB000010B5054CCA
:10696C0013462CB10A4601460220AFF3008010BD3D
:10697C002046FCE7000000000A44914200F1FF337E
:10698C0000D1704710B511F8014B03F8014F91423B
:10699C00F9D110BD02440346934200D1704703F86D
:1069AC00011BF9E738B50D4B1D68AB6B04467BB981
:1069BC001820FFF77FF90A4A0A4BA863C0E90023A5
:1069CC00094B83600B23838101220023C0E904233C
:1069DC00AB6B00221C615A6138BD00BF5CE5032023
:1069EC000E33CDAB34126DE6ECDE0500034613F826
:1069FC00012B002AFBD1181A013870471D400D00DD
:106A0C0059400D0081400D0085400D000000000034
:106A1C0050726F78696D6974792056616C75653A3E
:106A2C002000416D6269656E742056616C75653A23
:106A3C00200049324320616464726573733A2030DC
:106A4C007836300064656661756C7420004D534275
:106A5C00004C5342003C53504953657474696E6743
:106A6C00732064656661756C743E003C53504953E9
:106A7C00657474696E6773202573257520257320E2
:106A8C004D4F444525753E0000000000003E5B4F15
:106A9C005B3E3E6B4F6B3E1C3E7C3E1C183C7E3C72
:106AAC00181C577D571C1C5E7F5E1C00183C180080
:106ABC00FFE7C3E7FF0018241800FFE7DBE7FF3010
:106ACC00483A060E2629792926407F050507407F7E
:106ADC0005253F5A3CE73C5A7F3E1C1C08081C1CF1
:106AEC003E7F14227F22145F5F005F5F06097F01E7
:106AFC007F006689956A606060606094A2FFA294D2
:106B0C0008047E040810207E201008082A1C08089F
:106B1C001C2A08081E101010100C1E0C1E0C3038ED
:106B2C003E3830060E3E0E06000000000000005FEE
:106B3C0000000007000700147F147F14242A7F2A0A
:106B4C0012231308646236495620500008070300CC
:106B5C00001C2241000041221C002A1C7F1C2A0818
:106B6C00083E08080080703000080808080800007B
:106B7C0060600020100804023E5149453E00427FEF
:106B8C00400072494949462141494D331814127F3E
:106B9C001027454545393C4A4949314121110907DE
:106BAC003649494936464949291E0000140000005F
:106BBC004034000000081422411414141414004131
:106BCC0022140802015909063E415D594E7C1211EE
:106BDC00127C7F494949363E414141227F41414126
:106BEC003E7F494949417F090909013E41415173A1
:106BFC007F0808087F00417F41002040413F017F12
:106C0C00081422417F404040407F021C027F7F04D9
:106C1C0008107F3E4141413E7F090909063E415122
:106C2C00215E7F09192946264949493203017F0112
:106C3C00033F4040403F1F2040201F3F4038403F13
:106C4C00631408146303047804036159494D430029
:106C5C007F4141410204081020004141417F040260
:106C6C0001020440404040400003070800205454F7
:106C7C0078407F28444438384444442838444428D5
:106C8C007F385454541800087E090218A4A49C7828
:106C9C007F0804047800447D40002040403D007F84
:106CAC001028440000417F40007C047804787C0864
:106CBC000404783844444438FC1824241818242438
:106CCC0018FC7C08040408485454542404043F441D
:106CDC00243C4040207C1C2040201C3C4030403C4C
:106CEC0044281028444C9090907C4464544C4400AC
:106CFC000836410000007700000041360800020110
:106D0C000204023C2623263C1EA1A161123A4040FB
:106D1C00207A385454555921555579412254547878
:106D2C0042215554784020545579400C1E52721211
:106D3C00395555555939545454593955545458009A
:106D4C0000457C410002457D420001457C407D129E
:106D5C0011127DF0282528F07C5455450020545400
:106D6C007C547C0A097F4932494949323A444444AB
:106D7C003A324A4848303A4141217A3A42402078E6
:106D8C00009DA0A07D3D4242423D3D4040403D3CE7
:106D9C0024FF2424487E4943662B2FFC2F2BFF090C
:106DAC0029F620C0887E0903205454794100004400
:106DBC007D413048484A32384040227A007A0A0AEB
:106DCC00727D0D19317D2629292F2826292929265E
:106DDC0030484D4020380808080808080808382FA3
:106DEC0010C8ACBA2F102834FA00007B000008142D
:106DFC002A142222142A14085500550055AA55AA03
:106E0C0055AAFF55FF55FF000000FF00101010FFA2
:106E1C0000141414FF001010FF00FF1010F010F0FD
:106E2C00141414FC001414F700FF0000FF00FF14EE
:106E3C0014F404FC141417101F10101F101F14143A
:106E4C00141F00101010F0000000001F1010101084
:106E5C001F10101010F010000000FF101010101078
:106E6C0010101010FF10000000FF140000FF00FFB6
:106E7C0000001F10170000FC04F414141710171452
:106E8C0014F404F40000FF00F71414141414141474
:106E9C00F700F7141414171410101F101F141414E7
:106EAC00F4141010F010F000001F101F0000001F51
:106EBC0014000000FC140000F010F01010FF10FF84
:106ECC00141414FF141010101F00000000F010FF19
:106EDC00FFFFFFFFF0F0F0F0F0FFFFFF00000000FD
:106EEC0000FFFF0F0F0F0F0F3844443844FC4A4A81
:106EFC004A347E02020606027E027E026355494136
:106F0C00633844443C04407E201E2006027E02026C
:106F1C0099A5E7A5991C2A492A1C4C7201724C3080
:106F2C004A4D4D303048784830BC625A463D3E4957
:106F3C004949007E0101017E2A2A2A2A2A44445FFB
:106F4C00444440514A444040444A51400000FF01EF
:106F5C0003E080FF000008086B6B083612362436FD
:106F6C00060F090F06000018180000001010003062
:106F7C0040FF0101001F01011E00191D1712003CEA
:106F8C003C3C3C0000000000000000000000000041
:106F9C000000000000000000D1490D00615F0D00F1
:106FAC009D400D00D9430D00DB430D000D440D0039
:106FBC00E9430D00FB430D001D430D00D9430D00AB
:106FCC0005460D007F450D0025440D0063440D0062
:106FDC009D440D00E3440D0081450D00FF440D0060
:106FEC000000000000000000E14A0D00014B0D0004
:106FFC00D1490D00615F0D00B94F0D00D9430D0053
:10700C00DB430D000D440D00E9430D00FB430D0067
:10701C001D430D00D9430D0005460D0073510D00A5
:10702C0007570D00B9560D009D440D00E3440D00AB
:10703C0081450D00FF440D00000000000000000021
:10704C00C9420D009D420D009F420D000000000042
:10705C000001800000000000000000000380000020
:10706C000000000000000007C0000000000000004D
:10707C00000007C00000000000000000000FC0006E
:10708C0000000000000000001FE0000000000000F5
:10709C000000001FE00000000000000000003FE0C6
:1070AC000000000000000000003FF00000000000A5
:1070BC00000000007FF0000000000000001FF87FBF
:1070CC00F0000000000000003FFE7FF00000000018
:1070DC000000003FFF7FF0000000000000001FFFD9
:1070EC00FBE0000000000000000FFFF9FFC00000F3
:1070FC00000000000FFFF9FFF8000000000000077F
:10710C00FFF1FFFF00000000000003FC73FFFF8095
:10711C00000000000001FE3FFFFF800000000000A7
:10712C0000FF1E0FFF000000000000007FFE1FFC90
:10713C00000000000000003FFFFFF800000000000E
:10714C0000000FDFFFE0000000000000001F19FF2F
:10715C00C0000000000000003F3CFF0000000000E9
:10716C000000007E7CF800000000000000007FFEA4
:10717C007C0000000000000000FFFFFC000000008D
:10718C0000000000FFFFFE0000000000000000FFF8
:10719C00FFFE0000000000000001FFEFFE000000F9
:1071AC000000000001FFCFFE000000000000000303
:1071BC00FF07FE0000000000000003FC07FE0000BB
:1071CC00000000000003F003FE00000000000000BF
:1071DC00018000FE000000000000000000007E00A6
:1071EC000000000000000000003E00000000000055
:1071FC00000000000C000000000000078000FC00F4
:10720C000003C0000000078001FC000003C0000068
:10721C0000078001FC000003C0000000078001E0B3
:10722C000000001E000000078001E00000001E00AE
:10723C007FE3F79FF9FDE7787BDFC0FFF7FFBFFD2A
:10724C00FDFF787BDFC0FFF7FFBFFDFDFF787BDF25
:10725C00C0F0F787BC3DE1FF787BDE00F0F787BC20
:10726C003DE1F0787BDE0000F787803DE1E0787B44
:10727C00DE007FF7879FFDE1E0787BDE00FFF7877C
:10728C00BFFDE1E0787BDE00F0F787BC3DE1E07804
:10729C007BDE00F0F787BC3DE1E0787BDE00F0F7A9
:1072AC0087BC3DE1E0787BDE00FFF7FFBFFDE1E04E
:1072BC007FFBDFC0FFF7FFBFFDE1E07FFBDFC07CA2
:1072CC00F3F39F3DE1E03E7BCFC0000000000000E7
:1072DC000000000000FFFFFFFFFFFFFFFFFFFFC0EC
:1072EC00FFFFFFFFFD68DB111A31C0FFFFFFFFFD41
:1072FC002B5AFB6AEFC0FFFFFFFFFD4B5B3B1A33C2
:10730C00C0FFFFFFFFFD6B5BDB6AFDC00000600090
:10731C0000000000000000000000000000E0000081
:10732C00000000000000000000000001E000000070
:10733C000000000000000000000001F00000000050
:10734C0000000000000000000003F000000000003E
:10735C00000000000000000007F00000000000002A
:10736C000000000000000007F80000000000000012
:10737C000000000000000FF800000003C0007E00B9
:10738C000001E0007F0FF800000003C000FE0000C9
:10739C0001E000FFEFF800000003C000FE00000158
:1073AC00E000FFFFF800000003C000F00000000F39
:1073BC00007FFE7FC0000003C000F00000000F0043
:1073CC003FFE7FF83FF1FBCFFCFEF3BC3DEFE01F2F
:1073DC00FE7FFF7FFBFFDFFEFEFFBC3DEFE01FC625
:1073EC00FFFF7FFBFFDFFEFEFFBC3DEFE00FE3C7BF
:1073FC00FE787BC3DE1EF0FFBC3DEF0007FF87FC71
:10740C00787BC3DE1EF0F83C3DEF0001FFFFF0007F
:10741C007BC3C01EF0F03C3DEF0001F37FE03FFB6F
:10742C00C3CFFEF0F03C3DEF0003E33F807FFBC396
:10743C00DFFEF0F03C3DEF0007E73C00787BC3DE5D
:10744C001EF0F03C3DEF0007FFBE00787BC3DE1E54
:10745C00F0F03C3DEF0007FFFE00787BC3DE1EF032
:10746C00F03C3DEF000FFFFE007FFBFFDFFEF0F076
:10747C003FFDEFE00FFFFF007FFBFFDFFEF0F03F73
:10748C00FDEFE00FF9FF003E79F9CF9EF0F01F3DC4
:10749C00E7E01FF1FF00000000000000000000000A
:1074AC00001F80FF007FFFFFFFFFFFFFFFFFFFE0DC
:1074BC001C007F007FFFFFFFFEB46D888D18E0007D
:1074CC00001F007FFFFFFFFE95AD7DB577E000004C
:1074DC000F007FFFFFFFFEA5AD9D8D19E00000069C
:1074EC00007FFFFFFFFEB5ADEDB57EE000000000B4
:1074FC00000000008D4F0D00A54F0D00D1490D006F
:10750C00615F0D00B94F0D00D9430D00DB430D0039
:10751C000D440D00E9430D00FB430D001D430D0010
:10752C00D9430D0005460D0073510D0007570D0092
:10753C00B9560D009D440D00E3440D0081450D002E
:10754C00FF440D000080C0E0F0F8FCFE00010307D2
:10755C000F1F3F7FAED580A8D300408D2000A1C85F
:10756C00DB40A4A62EAFDA02818FDA1281DA028117
:10757C002200FF21000000000000000000000000BD
:10758C005F5D0D00555D0D004B5D0D00415D0D0007
:10759C00355D0D00295D0D00B1660D00B9660D005D
:1075AC001D5D0D00155D0D000B5D0D00015D0D00E9
:1075BC00E9660D0000081018202830386170700042
:1075CC0025592D256D2D25645425483A254D3A25F0
:1075DC0053257A0061736374696D650000000000C7
:1075EC00000000001D620D000D620D000F620D0009
:1075FC000000000000000000FD620D0065630D003E
:10760C003B630D00615F0D002D630D00FF620D00EB
:10761C000F630D005F630D001F630D00F9620D0019
:10762C00000000000000000001640D006D640D00FE
:10763C0045640D00615F0D0015640D0031640D0093
:10764C0023640D003F640D0003640D0007640D00FE
:10765C000000000000000000FD640D0047650D00F7
:10766C001F650D00FF640D0027650D002F650D00D3
:10767C0037650D003F650D000000000000000000A4
:10768C0053660D0049660D003F660D0001660D0046
:10769C0089600D0033660D00B1660D00B9660D00F2
:1076AC0027660D001F660D0015660D000B660D009C
:1076BC00E9660D00000000000000000071660D007E
:1076CC007B660D0085660D008F660D0099660D00BA
:1076DC00A5660D00B1660D00B9660D00C1660D0002
:1076EC00CD660D00D5660D00DF660D00E9660D0058
:1076FC000000000039420D00695D0D00D95E0D00DF
:10770C00395F0D0095600D00A5600D00CD600D007A
:10771C005D660D00C9670D00000000000000000050
:04772C000000000059
:047730000000000055
:10773400E0750D0060E5032000000000000000007B
:107744000000000000000000000000000000000035
:107754000000000000000000000000000000000025
:107764000000000000000000000000000000000015
:107774000000000000000000000000000000000005
:1077840000000000000000000000000000000000F5
:087794000000000000000000ED
:10779C00FFFFFFFF00000102030405060708090AAA
:1077AC000B0C0D0E0F101112131415161718191AA5
:0877BC001B1C1D1E1F202800EC
:0477C40078563412AD
:04000003D000401CCD
:00000001FF
